{
  "_format": "hh3-artifact-1",
  "contractName": "Event",
  "sourceName": "contracts/Event.sol",
  "abi": [
    {
      "anonymous": false,
      "inputs": [
        {
          "indexed": true,
          "internalType": "address",
          "name": "from",
          "type": "address"
        }
      ],
      "name": "Log",
      "type": "event"
    },
    {
      "inputs": [],
      "name": "emitLog",
      "outputs": [],
      "stateMutability": "nonpayable",
      "type": "function"
    }
  ],
  "bytecode": "0x6080604052348015600e575f5ffd5b50609480601a5f395ff3fe6080604052348015600e575f5ffd5b50600436106026575f3560e01c8063f42c13bf14602a575b5f5ffd5b60306032565b005b60405133907fb8a00d6d8ca1be30bfec34d8f97e55f0f0fd9eeb7fb46e030516363d4cfe1ad6905f90a256fea2646970667358221220b467d39fb2b922599369356924469163dcd04447bd0ddf17127b5d9792c8948164736f6c634300081c0033",
  "linkReferences": {},
  "deployedLinkReferences": {},
  "immutableReferences": {},
  "inputSourceName": "project/contracts/Event.sol",
  "buildInfoId": "solc-0_8_28-64abacec6c557a15f319f9d98174d4d88db6ea6d"
}